IP 127.0.0.1.59640 > 127.0.0.1.9877: Flags [S], seq 2135704952, win 65495, options [mss 65495,sackOK,TS val 2610201888 ecr 0,nop,wscale 7], length 0
	0x0000:  4500 003c e722 4000 4006 5597 7f00 0001
	0x0010:  7f00 0001 e8f8 2695 7f4c 4578 0000 0000
	0x0020:  a002 ffd7 fe30 0000 0204 ffd7 0402 080a
	0x0030:  9b94 8520 0000 0000 0103 0307
IP 127.0.0.1.9877 > 127.0.0.1.59640: Flags [S.], seq 3819570214, ack 2135704953, win 65483, options [mss 65495,sackOK,TS val 2610201888 ecr 2610201888,nop,wscale 7], length 0
	0x0000:  4500 003c 0000 4000 4006 3cba 7f00 0001
	0x0010:  7f00 0001 2695 e8f8 e3aa 0426 7f4c 4579
	0x0020:  a012 ffcb fe30 0000 0204 ffd7 0402 080a
	0x0030:  9b94 8520 9b94 8520 0103 0307
IP 127.0.0.1.59640 > 127.0.0.1.9877: Flags [.], ack 1, win 512, options [nop,nop,TS val 2610201888 ecr 2610201888], length 0
	0x0000:  4500 0034 e723 4000 4006 559e 7f00 0001
	0x0010:  7f00 0001 e8f8 2695 7f4c 4579 e3aa 0427
	0x0020:  8010 0200 fe28 0000 0101 080a 9b94 8520
	0x0030:  9b94 8520
IP 127.0.0.1.59656 > 127.0.0.1.9877: Flags [S], seq 3221784837, win 65495, options [mss 65495,sackOK,TS val 2610201888 ecr 0,nop,wscale 7], length 0
	0x0000:  4500 003c 45dc 4000 4006 f6dd 7f00 0001
	0x0010:  7f00 0001 e908 2695 c008 8905 0000 0000
	0x0020:  a002 ffd7 fe30 0000 0204 ffd7 0402 080a
	0x0030:  9b94 8520 0000 0000 0103 0307
IP 127.0.0.1.9877 > 127.0.0.1.59656: Flags [S.], seq 764086049, ack 3221784838, win 65483, options [mss 65495,sackOK,TS val 2610201888 ecr 2610201888,nop,wscale 7], length 0
	0x0000:  4500 003c 0000 4000 4006 3cba 7f00 0001
	0x0010:  7f00 0001 2695 e908 2d8b 0721 c008 8906
	0x0020:  a012 ffcb fe30 0000 0204 ffd7 0402 080a
	0x0030:  9b94 8520 9b94 8520 0103 0307
IP 127.0.0.1.59656 > 127.0.0.1.9877: Flags [.], ack 1, win 512, options [nop,nop,TS val 2610201888 ecr 2610201888], length 0
	0x0000:  4500 0034 45dd 4000 4006 f6e4 7f00 0001
	0x0010:  7f00 0001 e908 2695 c008 8906 2d8b 0722
	0x0020:  8010 0200 fe28 0000 0101 080a 9b94 8520
	0x0030:  9b94 8520
IP 127.0.0.1.59660 > 127.0.0.1.9877: Flags [S], seq 572068611, win 65495, options [mss 65495,sackOK,TS val 2610201888 ecr 0,nop,wscale 7], length 0
	0x0000:  4500 003c 8a50 4000 4006 b269 7f00 0001
	0x0010:  7f00 0001 e90c 2695 2219 1303 0000 0000
	0x0020:  a002 ffd7 fe30 0000 0204 ffd7 0402 080a
	0x0030:  9b94 8520 0000 0000 0103 0307
IP 127.0.0.1.9877 > 127.0.0.1.59660: Flags [S.], seq 3599407412, ack 572068612, win 65483, options [mss 65495,sackOK,TS val 2610201888 ecr 2610201888,nop,wscale 7], length 0
	0x0000:  4500 003c 0000 4000 4006 3cba 7f00 0001
	0x0010:  7f00 0001 2695 e90c d68a 9934 2219 1304
	0x0020:  a012 ffcb fe30 0000 0204 ffd7 0402 080a
	0x0030:  9b94 8520 9b94 8520 0103 0307
IP 127.0.0.1.59660 > 127.0.0.1.9877: Flags [.], ack 1, win 512, options [nop,nop,TS val 2610201888 ecr 2610201888], length 0
	0x0000:  4500 0034 8a51 4000 4006 b270 7f00 0001
	0x0010:  7f00 0001 e90c 2695 2219 1304 d68a 9935
	0x0020:  8010 0200 fe28 0000 0101 080a 9b94 8520
	0x0030:  9b94 8520
IP 127.0.0.1.59668 > 127.0.0.1.9877: Flags [S], seq 3420052139, win 65495, options [mss 65495,sackOK,TS val 2610201888 ecr 0,nop,wscale 7], length 0
	0x0000:  4500 003c 651c 4000 4006 d79d 7f00 0001
	0x0010:  7f00 0001 e914 2695 cbd9 daab 0000 0000
	0x0020:  a002 ffd7 fe30 0000 0204 ffd7 0402 080a
	0x0030:  9b94 8520 0000 0000 0103 0307
IP 127.0.0.1.9877 > 127.0.0.1.59668: Flags [S.], seq 2216922236, ack 3420052140, win 65483, options [mss 65495,sackOK,TS val 2610201888 ecr 2610201888,nop,wscale 7], length 0
	0x0000:  4500 003c 0000 4000 4006 3cba 7f00 0001
	0x0010:  7f00 0001 2695 e914 8423 8c7c cbd9 daac
	0x0020:  a012 ffcb fe30 0000 0204 ffd7 0402 080a
	0x0030:  9b94 8520 9b94 8520 0103 0307
IP 127.0.0.1.59668 > 127.0.0.1.9877: Flags [.], ack 1, win 512, options [nop,nop,TS val 2610201888 ecr 2610201888], length 0
	0x0000:  4500 0034 651d 4000 4006 d7a4 7f00 0001
	0x0010:  7f00 0001 e914 2695 cbd9 daac 8423 8c7d
	0x0020:  8010 0200 fe28 0000 0101 080a 9b94 8520
	0x0030:  9b94 8520
IP 127.0.0.1.59684 > 127.0.0.1.9877: Flags [S], seq 1421034676, win 65495, options [mss 65495,sackOK,TS val 2610201889 ecr 0,nop,wscale 7], length 0
	0x0000:  4500 003c e506 4000 4006 57b3 7f00 0001
	0x0010:  7f00 0001 e924 2695 54b3 44b4 0000 0000
	0x0020:  a002 ffd7 fe30 0000 0204 ffd7 0402 080a
	0x0030:  9b94 8521 0000 0000 0103 0307
IP 127.0.0.1.9877 > 127.0.0.1.59684: Flags [S.], seq 255016064, ack 1421034677, win 65483, options [mss 65495,sackOK,TS val 2610201889 ecr 2610201889,nop,wscale 7], length 0
	0x0000:  4500 003c 0000 4000 4006 3cba 7f00 0001
	0x0010:  7f00 0001 2695 e924 0f33 3c80 54b3 44b5
	0x0020:  a012 ffcb fe30 0000 0204 ffd7 0402 080a
	0x0030:  9b94 8521 9b94 8521 0103 0307
IP 127.0.0.1.59684 > 127.0.0.1.9877: Flags [.], ack 1, win 512, options [nop,nop,TS val 2610201889 ecr 2610201889], length 0
	0x0000:  4500 0034 e507 4000 4006 57ba 7f00 0001
	0x0010:  7f00 0001 e924 2695 54b3 44b5 0f33 3c81
	0x0020:  8010 0200 fe28 0000 0101 080a 9b94 8521
	0x0030:  9b94 8521
IP 127.0.0.1.59698 > 127.0.0.1.9877: Flags [S], seq 3038718785, win 65495, options [mss 65495,sackOK,TS val 2610201889 ecr 0,nop,wscale 7], length 0
	0x0000:  4500 003c edce 4000 4006 4eeb 7f00 0001
	0x0010:  7f00 0001 e932 2695 b51f 2b41 0000 0000
	0x0020:  a002 ffd7 fe30 0000 0204 ffd7 0402 080a
	0x0030:  9b94 8521 0000 0000 0103 0307
IP 127.0.0.1.9877 > 127.0.0.1.59698: Flags [S.], seq 2170061915, ack 3038718786, win 65483, options [mss 65495,sackOK,TS val 2610201889 ecr 2610201889,nop,wscale 7], length 0
	0x0000:  4500 003c 0000 4000 4006 3cba 7f00 0001
	0x0010:  7f00 0001 2695 e932 8158 845b b51f 2b42
	0x0020:  a012 ffcb fe30 0000 0204 ffd7 0402 080a
	0x0030:  9b94 8521 9b94 8521 0103 0307
IP 127.0.0.1.59698 > 127.0.0.1.9877: Flags [.], ack 1, win 512, options [nop,nop,TS val 2610201889 ecr 2610201889], length 0
	0x0000:  4500 0034 edcf 4000 4006 4ef2 7f00 0001
	0x0010:  7f00 0001 e932 2695 b51f 2b42 8158 845c
	0x0020:  8010 0200 fe28 0000 0101 080a 9b94 8521
	0x0030:  9b94 8521
IP 127.0.0.1.59710 > 127.0.0.1.9877: Flags [S], seq 1118425651, win 65495, options [mss 65495,sackOK,TS val 2610201889 ecr 0,nop,wscale 7], length 0
	0x0000:  4500 003c 84bd 4000 4006 b7fc 7f00 0001
	0x0010:  7f00 0001 e93e 2695 42a9 d233 0000 0000
	0x0020:  a002 ffd7 fe30 0000 0204 ffd7 0402 080a
	0x0030:  9b94 8521 0000 0000 0103 0307
IP 127.0.0.1.9877 > 127.0.0.1.59710: Flags [S.], seq 2972143743, ack 1118425652, win 65483, options [mss 65495,sackOK,TS val 2610201889 ecr 2610201889,nop,wscale 7], length 0
	0x0000:  4500 003c 0000 4000 4006 3cba 7f00 0001
	0x0010:  7f00 0001 2695 e93e b127 507f 42a9 d234
	0x0020:  a012 ffcb fe30 0000 0204 ffd7 0402 080a
	0x0030:  9b94 8521 9b94 8521 0103 0307
IP 127.0.0.1.59710 > 127.0.0.1.9877: Flags [.], ack 1, win 512, options [nop,nop,TS val 2610201889 ecr 2610201889], length 0
	0x0000:  4500 0034 84be 4000 4006 b803 7f00 0001
	0x0010:  7f00 0001 e93e 2695 42a9 d234 b127 5080
	0x0020:  8010 0200 fe28 0000 0101 080a 9b94 8521
	0x0030:  9b94 8521
IP 127.0.0.1.59724 > 127.0.0.1.9877: Flags [S], seq 3615676321, win 65495, options [mss 65495,sackOK,TS val 2610201889 ecr 0,nop,wscale 7], length 0
	0x0000:  4500 003c bc93 4000 4006 8026 7f00 0001
	0x0010:  7f00 0001 e94c 2695 d782 d7a1 0000 0000
	0x0020:  a002 ffd7 fe30 0000 0204 ffd7 0402 080a
	0x0030:  9b94 8521 0000 0000 0103 0307
IP 127.0.0.1.9877 > 127.0.0.1.59724: Flags [S.], seq 3460909308, ack 3615676322, win 65483, options [mss 65495,sackOK,TS val 2610201889 ecr 2610201889,nop,wscale 7], length 0
	0x0000:  4500 003c 0000 4000 4006 3cba 7f00 0001
	0x0010:  7f00 0001 2695 e94c ce49 48fc d782 d7a2
	0x0020:  a012 ffcb fe30 0000 0204 ffd7 0402 080a
	0x0030:  9b94 8521 9b94 8521 0103 0307
IP 127.0.0.1.59724 > 127.0.0.1.9877: Flags [.], ack 1, win 512, options [nop,nop,TS val 2610201889 ecr 2610201889], length 0
	0x0000:  4500 0034 bc94 4000 4006 802d 7f00 0001
	0x0010:  7f00 0001 e94c 2695 d782 d7a2 ce49 48fd
	0x0020:  8010 0200 fe28 0000 0101 080a 9b94 8521
	0x0030:  9b94 8521
IP 127.0.0.1.59736 > 127.0.0.1.9877: Flags [S], seq 4270984091, win 65495, options [mss 65495,sackOK,TS val 2610201889 ecr 0,nop,wscale 7], length 0
	0x0000:  4500 003c ec4a 4000 4006 506f 7f00 0001
	0x0010:  7f00 0001 e958 2695 fe92 0b9b 0000 0000
	0x0020:  a002 ffd7 fe30 0000 0204 ffd7 0402 080a
	0x0030:  9b94 8521 0000 0000 0103 0307
IP 127.0.0.1.9877 > 127.0.0.1.59736: Flags [S.], seq 3755394250, ack 4270984092, win 65483, options [mss 65495,sackOK,TS val 2610201889 ecr 2610201889,nop,wscale 7], length 0
	0x0000:  4500 003c 0000 4000 4006 3cba 7f00 0001
	0x0010:  7f00 0001 2695 e958 dfd6 c4ca fe92 0b9c
	0x0020:  a012 ffcb fe30 0000 0204 ffd7 0402 080a
	0x0030:  9b94 8521 9b94 8521 0103 0307
IP 127.0.0.1.59736 > 127.0.0.1.9877: Flags [.], ack 1, win 512, options [nop,nop,TS val 2610201889 ecr 2610201889], length 0
	0x0000:  4500 0034 ec4b 4000 4006 5076 7f00 0001
	0x0010:  7f00 0001 e958 2695 fe92 0b9c dfd6 c4cb
	0x0020:  8010 0200 fe28 0000 0101 080a 9b94 8521
	0x0030:  9b94 8521
IP 127.0.0.1.59748 > 127.0.0.1.9877: Flags [S], seq 3339473005, win 65495, options [mss 65495,sackOK,TS val 2610201889 ecr 0,nop,wscale 7], length 0
	0x0000:  4500 003c d3f4 4000 4006 68c5 7f00 0001
	0x0010:  7f00 0001 e964 2695 c70c 506d 0000 0000
	0x0020:  a002 ffd7 fe30 0000 0204 ffd7 0402 080a
	0x0030:  9b94 8521 0000 0000 0103 0307
IP 127.0.0.1.9877 > 127.0.0.1.59748: Flags [S.], seq 3489320427, ack 3339473006, win 65483, options [mss 65495,sackOK,TS val 2610201889 ecr 2610201889,nop,wscale 7], length 0
	0x0000:  4500 003c 0000 4000 4006 3cba 7f00 0001
	0x0010:  7f00 0001 2695 e964 cffa cdeb c70c 506e
	0x0020:  a012 ffcb fe30 0000 0204 ffd7 0402 080a
	0x0030:  9b94 8521 9b94 8521 0103 0307
IP 127.0.0.1.59748 > 127.0.0.1.9877: Flags [.], ack 1, win 512, options [nop,nop,TS val 2610201889 ecr 2610201889], length 0
	0x0000:  4500 0034 d3f5 4000 4006 68cc 7f00 0001
	0x0010:  7f00 0001 e964 2695 c70c 506e cffa cdec
	0x0020:  8010 0200 fe28 0000 0101 080a 9b94 8521
	0x0030:  9b94 8521
IP 127.0.0.1.59736 > 127.0.0.1.9877: Flags [P.], seq 1:1039, ack 1, win 512, options [nop,nop,TS val 2610201889 ecr 2610201889], length 1038
	0x0000:  4500 0442 ec4c 4000 4006 4c67 7f00 0001
	0x0010:  7f00 0001 e958 2695 fe92 0b9c dfd6 c4cb
	0x0020:  8018 0200 0237 0000 0101 080a 9b94 8521
	0x0030:  9b94 8521 eeff 0004 0000 bb95 7ab8 7f19
	0x0040:  0600 4445 5820 5549 2069 7320 6120 6861
	0x0050:  6e64 6372 6166 7465 6420 696e 7465 7266
	0x0060:  6163 6520 7072 6f67 7261 6d6d 6564 2069
	0x0070:  6e20 6f70 656e 4672 616d 6577 6f72 6b73
	0x0080:  2c20 7275 6e6e 696e 6720 6675 6c6c 7363
	0x0090:  7265 656e 2075 6e64 6572 6e65 6174 6820
	0x00a0:  6120 6675 6e63 7469 6f6e 696e 6720 7465
	0x00b0:  726d 696e 616c 2c20 6769 7669 6e67 2074
	0x00c0:  6865 2065 7870 6572 6965 6e63 6520 6f66
	0x00d0:  2068 6176 696e 6720 6120 7363 6920 6669
	0x00e0:  2063 6f6d 7075 7465 722e 204d 6f72 652e
	0x00f0:  0a54 6865 2070 726f 6a65 6374 2773 2073
	0x0100:  6f75 7263 6520 636f 6465 2069 7320 686f
	0x0110:  7374 6564 2068 6572 6520 666f 7220 7265
	0x0120:  6665 7265 6e63 652e 2049 6e63 6c75 6465
	0x0130:  6420 6172 6520 7468 6520 6f70 656e 4672
	0x0140:  616d 6577 6f72 6b73 2070 726f 6a65 6374
	0x0150:  2073 6f75 7263 6520 6669 6c65 7320 616e
	0x0160:  6420 7368 6164 6572 732c 2061 7320 7765
	0x0170:  6c6c 2061 7320 7468 6520 6368 616e 6765
	0x0180:  7320 4920 6d61 6465 2074 6f20 4253 5057
	0x0190:  4d20 286d 6f72 6520 6265 6c6f 7729 2e20
	0x01a0:  4e6f 7420 696e 636c 7564 6564 2061 7265
	0x01b0:  2074 6869 6e67 7320 6c69 6b65 2066 6f6e
	0x01c0:  7473 2061 6e64 2069 6d61 6765 732e 0a4e
	0x01d0:  6f74 653a 2044 6578 2055 4920 7761 7320
	0x01e0:  6465 7369 676e 6564 2061 7320 616e 2065
	0x01f0:  7870 6572 696d 656e 7420 6f72 2061 6e20
	0x0200:  6172 7420 7069 6563 652c 206e 6f74 2064
	0x0210:  6973 7472 6962 7574 6162 6c65 2073 6f66
	0x0220:  7477 6172 652c 2073 6f20 6173 2061 2072
	0x0230:  6573 756c 742c 2074 6865 2063 6f64 6520
	0x0240:  2874 686f 7567 6820 4927 7665 2063 6c65
	0x0250:  616e 6564 2069 7420 7570 2073 6f6d 6529
	0x0260:  2069 7320 6e6f 7420 7468 6520 6561 7369
	0x0270:  6573 7420 746f 2073 6f72 7420 7468 726f
	0x0280:  7567 682e 2041 6c73 6f2c 2062 6563 6175
	0x0290:  7365 2069 7420 6973 206e 6f20 6c6f 6e67
	0x02a0:  6572 2069 6e20 6465 7665 6c6f 706d 656e
	0x02b0:  742c 2049 2077 6f6e 2774 2062 6520 7472
	0x02c0:  7969 6e67 2074 6f20 6d61 6b65 2074 6869
	0x02d0:  7320 776f 726b 206f 6e20 6f74 6865 7220
	0x02e0:  7065 6f70 6c65 206d 6163 6869 6e65 7320
	0x02f0:  2d20 7468 6174 2070 6172 7427 7320 7570
	0x0300:  2074 6f20 796f 752e 0a57 6861 7427 7320
	0x0310:  4861 7070 656e 696e 6720 696e 2074 6865
	0x0320:  2056 6964 656f 2044 656d 6f0a 5265 616c
	0x0330:  2064 6573 6b74 6f70 7320 7265 766f 6c76
	0x0340:  6520 6172 6f75 6e64 2077 696e 646f 7773
	0x0350:  2c20 6275 7420 6d6f 7374 2073 6369 2066
	0x0360:  6920 696e 7465 7266 6163 6573 2068 6176
	0x0370:  6520 7468 6573 6520 696e 7465 6772 6174
	0x0380:  6564 2064 6573 6b74 6f70 7320 7769 7468
	0x0390:  2061 6c6c 2073 6f72 7420 6f66 2061 6e69
	0x03a0:  6d61 7469 6f6e 7320 616e 6420 6e6f 2061
	0x03b0:  7070 6172 656e 7420 7769 6e64 6f77 732e
	0x03c0:  2044 6578 2055 4920 6169 6d65 6420 746f
	0x03d0:  2063 7265 6174 6520 7468 6520 696c 6c75
	0x03e0:  7369 6f6e 206f 6620 6120 6465 736b 746f
	0x03f0:  7020 656e 7669 726f 6e6d 656e 7420 7769
	0x0400:  7468 6f75 7420 7769 6e64 6f77 7320 7768
	0x0410:  696c 6520 696e 2072 6561 6c69 7479 2073
	0x0420:  7469 6c6c 206f 7065 7261 7469 6e67 2077
	0x0430:  6974 6820 7769 6e64 6f77 7320 2869 6e20
	0x0440:  5820
IP 127.0.0.1.9877 > 127.0.0.1.59736: Flags [.], ack 1039, win 505, options [nop,nop,TS val 2610201889 ecr 2610201889], length 0
	0x0000:  4500 0034 4510 4000 4006 f7b1 7f00 0001
	0x0010:  7f00 0001 2695 e958 dfd6 c4cb fe92 0faa
	0x0020:  8010 01f9 fe28 0000 0101 080a 9b94 8521
	0x0030:  9b94 8521
IP 127.0.0.1.9877 > 127.0.0.1.59748: Flags [P.], seq 1:1025, ack 1, win 512, options [nop,nop,TS val 2610201889 ecr 2610201889], length 1024
	0x0000:  4500 0434 abe0 4000 4006 8ce1 7f00 0001
	0x0010:  7f00 0001 2695 e964 cffa cdec c70c 506e
	0x0020:  8018 0200 0229 0000 0101 080a 9b94 8521
	0x0030:  9b94 8521 eeff 0004 0000 bb95 7ab8 7f19
	0x0040:  0600 4445 5820 5549 2069 7320 6120 6861
	0x0050:  6e64 6372 6166 7465 6420 696e 7465 7266
	0x0060:  6163 6520 7072 6f67 7261 6d6d 6564 2069
	0x0070:  6e20 6f70 656e 4672 616d 6577 6f72 6b73
	0x0080:  2c20 7275 6e6e 696e 6720 6675 6c6c 7363
	0x0090:  7265 656e 2075 6e64 6572 6e65 6174 6820
	0x00a0:  6120 6675 6e63 7469 6f6e 696e 6720 7465
	0x00b0:  726d 696e 616c 2c20 6769 7669 6e67 2074
	0x00c0:  6865 2065 7870 6572 6965 6e63 6520 6f66
	0x00d0:  2068 6176 696e 6720 6120 7363 6920 6669
	0x00e0:  2063 6f6d 7075 7465 722e 204d 6f72 652e
	0x00f0:  0a54 6865 2070 726f 6a65 6374 2773 2073
	0x0100:  6f75 7263 6520 636f 6465 2069 7320 686f
	0x0110:  7374 6564 2068 6572 6520 666f 7220 7265
	0x0120:  6665 7265 6e63 652e 2049 6e63 6c75 6465
	0x0130:  6420 6172 6520 7468 6520 6f70 656e 4672
	0x0140:  616d 6577 6f72 6b73 2070 726f 6a65 6374
	0x0150:  2073 6f75 7263 6520 6669 6c65 7320 616e
	0x0160:  6420 7368 6164 6572 732c 2061 7320 7765
	0x0170:  6c6c 2061 7320 7468 6520 6368 616e 6765
	0x0180:  7320 4920 6d61 6465 2074 6f20 4253 5057
	0x0190:  4d20 286d 6f72 6520 6265 6c6f 7729 2e20
	0x01a0:  4e6f 7420 696e 636c 7564 6564 2061 7265
	0x01b0:  2074 6869 6e67 7320 6c69 6b65 2066 6f6e
	0x01c0:  7473 2061 6e64 2069 6d61 6765 732e 0a4e
	0x01d0:  6f74 653a 2044 6578 2055 4920 7761 7320
	0x01e0:  6465 7369 676e 6564 2061 7320 616e 2065
	0x01f0:  7870 6572 696d 656e 7420 6f72 2061 6e20
	0x0200:  6172 7420 7069 6563 652c 206e 6f74 2064
	0x0210:  6973 7472 6962 7574 6162 6c65 2073 6f66
	0x0220:  7477 6172 652c 2073 6f20 6173 2061 2072
	0x0230:  6573 756c 742c 2074 6865 2063 6f64 6520
	0x0240:  2874 686f 7567 6820 4927 7665 2063 6c65
	0x0250:  616e 6564 2069 7420 7570 2073 6f6d 6529
	0x0260:  2069 7320 6e6f 7420 7468 6520 6561 7369
	0x0270:  6573 7420 746f 2073 6f72 7420 7468 726f
	0x0280:  7567 682e 2041 6c73 6f2c 2062 6563 6175
	0x0290:  7365 2069 7420 6973 206e 6f20 6c6f 6e67
	0x02a0:  6572 2069 6e20 6465 7665 6c6f 706d 656e
	0x02b0:  742c 2049 2077 6f6e 2774 2062 6520 7472
	0x02c0:  7969 6e67 2074 6f20 6d61 6b65 2074 6869
	0x02d0:  7320 776f 726b 206f 6e20 6f74 6865 7220
	0x02e0:  7065 6f70 6c65 206d 6163 6869 6e65 7320
	0x02f0:  2d20 7468 6174 2070 6172 7427 7320 7570
	0x0300:  2074 6f20 796f 752e 0a57 6861 7427 7320
	0x0310:  4861 7070 656e 696e 6720 696e 2074 6865
	0x0320:  2056 6964 656f 2044 656d 6f0a 5265 616c
	0x0330:  2064 6573 6b74 6f70 7320 7265 766f 6c76
	0x0340:  6520 6172 6f75 6e64 2077 696e 646f 7773
	0x0350:  2c20 6275 7420 6d6f 7374 2073 6369 2066
	0x0360:  6920 696e 7465 7266 6163 6573 2068 6176
	0x0370:  6520 7468 6573 6520 696e 7465 6772 6174
	0x0380:  6564 2064 6573 6b74 6f70 7320 7769 7468
	0x0390:  2061 6c6c 2073 6f72 7420 6f66 2061 6e69
	0x03a0:  6d61 7469 6f6e 7320 616e 6420 6e6f 2061
	0x03b0:  7070 6172 656e 7420 7769 6e64 6f77 732e
	0x03c0:  2044 6578 2055 4920 6169 6d65 6420 746f
	0x03d0:  2063 7265 6174 6520 7468 6520 696c 6c75
	0x03e0:  7369 6f6e 206f 6620 6120 6465 736b 746f
	0x03f0:  7020 656e 7669 726f 6e6d 656e 7420 7769
	0x0400:  7468 6f75 7420 7769 6e64 6f77 7320 7768
	0x0410:  696c 6520 696e 2072 6561 6c69 7479 2073
	0x0420:  7469 6c6c 206f 7065 7261 7469 6e67 2077
	0x0430:  6974 6820
IP 127.0.0.1.59748 > 127.0.0.1.9877: Flags [.], ack 1025, win 505, options [nop,nop,TS val 2610201889 ecr 2610201889], length 0
	0x0000:  4500 0034 d3f6 4000 4006 68cb 7f00 0001
	0x0010:  7f00 0001 e964 2695 c70c 506e cffa d1ec
	0x0020:  8010 01f9 fe28 0000 0101 080a 9b94 8521
	0x0030:  9b94 8521
IP 127.0.0.1.9877 > 127.0.0.1.59748: Flags [P.], seq 1025:1039, ack 1, win 512, options [nop,nop,TS val 2610201889 ecr 2610201889], length 14
	0x0000:  4500 0042 abe1 4000 4006 90d2 7f00 0001
	0x0010:  7f00 0001 2695 e964 cffa d1ec c70c 506e
	0x0020:  8018 0200 fe36 0000 0101 080a 9b94 8521
	0x0030:  9b94 8521 7769 6e64 6f77 7320 2869 6e20
	0x0040:  5820
IP 127.0.0.1.59748 > 127.0.0.1.9877: Flags [.], ack 1039, win 505, options [nop,nop,TS val 2610201889 ecr 2610201889], length 0
	0x0000:  4500 0034 d3f7 4000 4006 68ca 7f00 0001
	0x0010:  7f00 0001 e964 2695 c70c 506e cffa d1fa
	0x0020:  8010 01f9 fe28 0000 0101 080a 9b94 8521
	0x0030:  9b94 8521

